:020000040800F2
:10000000C80600204D020008F1150008611500081F
:10001000ED150008F9030008D518000800000000DD
:10002000000000000000000000000000F9150008BA
:10003000FD03000800000000F5150008FD1500088C
:1000400067020008670200086702000867020008EC
:1000500067020008670200086702000867020008DC
:1000600067020008670200086702000867020008CC
:1000700067020008670200086702000867020008BC
:1000800067020008670200086702000867020008AC
:10009000670200086702000867020008670200089C
:1000A000670200086702000867020008670200088C
:1000B000670200086702000867020008670200087C
:1000C000670200086702000867020008670200086C
:1000D000670200086702000867020008670200085C
:1000E000670200086702000867020008670200084C
:1000F000670200086702000867020008670200083C
:10010000670200086702000867020008670200082B
:10011000670200086702000867020008670200081B
:10012000670200086702000867020008670200080B
:1001300067020008670200086702000867020008FB
:1001400067020008670200086702000867020008EB
:10015000670200086702000867020008C918000863
:1001600067020008670200086702000867020008CB
:10017000670200086702000867020008000000002C
:1001800067020008670200086702000867020008AB
:10019000670200086702000867020008670200089B
:1001A00000000000000000006702000800F002F8F4
:1001B00000F03CF80AA090E8000C82448344AAF1C5
:1001C0000107DA4501D100F031F8AFF2090EBAE8C3
:1001D0000F0013F0010F18BFFB1A43F0010318477B
:1001E0005C1700007C170000103A24BF78C878C163
:1001F000FAD8520724BF30C830C144BF04680C602D
:10020000704700000023002400250026103A28BF74
:1002100078C1FBD8520728BF30C148BF0B60704778
:100220001FB501F072FB1FBD10B510BD00F0A9F89D
:100230001146FFF7F5FF01F04FFB00F0C7F803B4DC
:10024000FFF7F2FF03BC00F0CFF800000948804739
:1002500009480047FEE7FEE7FEE7FEE7FEE7FEE7A8
:10026000FEE7FEE7FEE7FEE704480549054A064BC0
:1002700070470000B9160008AD010008C800002052
:10028000C8060020C8020020C802002053EA020C61
:1002900000F069802DE9F04B4FF00006002B1FBFE6
:1002A000B3FA83F503FA05F424FA05F65E4012BFAB
:1002B0001643B2FA82F502FA05F4C5F120051EBF15
:1002C00022FA05FC44EA0C04203556EA044C4FEAB5
:1002D000144418BF641C4FF000084FF0000990420E
:1002E00071EB030C39D3002919BFB1FA81F701FA78
:1002F00007F6B0FA80F700FA07F6C7F120071EBF2D
:1003000020FA07FC46EA0C062037B6FBF4FCA7EB04
:100310000507103F07F01F0BCBF120062CFA06F65D
:100320000CFA0BFB44BFB3460026202FA4BF5E4649
:100330004FF0000B5BEA060C08BF4FF0010B19EB06
:100340000B0948EB0608ABFB027C06FB02CC0BFB5F
:1003500003CCC01B71EB0C01C1E70B4602464146C2
:100360004846BDE8F08B13B5084318BF4FF0FF3087
:100370000146AFF30080BDE81C40704770477047EE
:100380007047754600F02CF8AE46050069465346A6
:1003900020F00700854618B020B5FFF765FFBDE8DF
:1003A00020404FF000064FF000074FF000084FF0DC
:1003B000000BAC46ACE8C009ACE8C009ACE8C00929
:1003C000ACE8C00921F007018D46704710B504461E
:1003D000AFF300802046BDE81040FFF730BF0000BB
:1003E000004870471000002001491820ABBEFEE70E
:1003F0002600020070470000FEE700007047000082
:1004000072B600BFFEE7000070B5866D044600F0CE
:100410003DF994F83510022928D105462068216C51
:10042000026822F016020260426922F080024261F4
:1004300009B9A16C19B1016821F0080101600168D6
:1004400021F00101016000BF20680068C00715D0DD
:1004500000F01CF9401B0628F6D32020606503201D
:1004600084F83500002184F8341070BD8020606568
:100470000120002184F8341070BD00BFE06D3F21E1
:1004800001FA00F0B060012084F83500002000215E
:1004900084F8341070BD000090F83510022909D19D
:1004A000052180F835100068016821F00101016024
:1004B000002070478021416501207047B0B5044697
:1004C00000F0E4F8054640F20000C2F200000078B7
:1004D000611C18BF044400BF00F0D8F8401BA042C4
:1004E000FAD3B0BD2DE9F04F82B000F13E4242F2A6
:1004F000004502F1FF77C4F202050A2243F6004EDE
:100500004FEAB726A84208BF0922C4F2010E092EFD
:1005100038BF4FEAB7220125002600274FF0000818
:10052000009208E008F101080437B8F1100F06F155
:10053000020600F0A7800C6805FA08F914EA090F12
:10054000F0D0D1F804B003220BF0030CACF101049D
:10055000B240012C6FEA020A10D88268CC6802EA25
:100560000A02B440224382604268CBF3001422EABC
:10057000090204FA08F42243426005E0BCF1030FCB
:1005800002D14FF0030C20E0C2688C6802EA0A0234
:10059000B4402243BCF1020FC26016D16FF00302D7
:1005A00002EA58020244D2F820C007F01C050F23CB
:1005B0000C69AB402CEA030304FA05F52B431362E4
:1005C000D1F804B001250BF0030C02680CFA06F315
:1005D00002EA0A021A431BF4403F0260A2D0002242
:1005E00043F644030192C4F202031A684FF6084C22
:1005F00042F480421A601A68CFF6FF7C02F480420F
:100600000192019A28F00302724452F80C3007F06C
:100610000C050F24AC40A343009C04FA05F52B43C2
:1006200042F80C30DEF808204B6842EA090543F630
:100630000C4CDC0258BF22EA0905CEF80850C4F27F
:10064000010CDCF800209C0242EA090558BF22EAAE
:100650000905CCF80050DEF804209C0342EA0905A5
:1006600058BF22EA0905CEF80450DEF80020DB036B
:1006700042EA090558BF22EA0905CEF800500125D3
:1006800050E700BF02B0BDE8F08F000040F2C000AC
:10069000C2F200000068704740F2000040F2C00162
:1006A000C2F20000C2F2000100780A68104408603B
:1006B0007047000080B543F60040C4F202000168B4
:1006C00041F400710160016841F4806101600168DA
:1006D00041F480710160032000F088F80F2000F0E1
:1006E00005F800F027F8002080BD000070B540F24A
:1006F0000006C2F2000640F208013278C2F20001A0
:100700004FF47A730968B3FBF2F20446B1FBF2F1DD
:10071000084600F081FB0F2C4FF0010508D838B9CE
:100720004FF0FF3021460022002500F033F87460BE
:10073000284670BD82B0002043F640010190C4F20B
:1007400002014A6842F480424A604A6802F48042E8
:100750000192019A0090086840F080500860086893
:1007600000F080500090009802B07047002848BF09
:100770007047C1B200F01F00012202FA00F04EF2F1
:100780000012CEF2000242EAD10121F0030108601A
:100790007047000010B54EF60C5CCEF2000CDCF891
:1007A0000030C3F3022E8EF00704042C28BF04246B
:1007B000BEF103034FF0FF3E0EFA04F438BF0023EE
:1007C000A14399400EFA03F39A43114300F00F023C
:1007D00000F160430901043A03F5644362440028D0
:1007E00048BF02F10C03197010BD00004EF60C5109
:1007F000CEF200010A684FF6FF031A4060F30A22A6
:1008000042F0806040F0FD700860704770B582B0C3
:100810000020019043F64000C4F202000168402627
:1008200041F0805101600068C4F20E2600F0805053
:100830000190019847F204050120C4F200053060E0
:10084000FFF724FF044600BF2868C00306D4FFF763
:100850001DFF001BB0F57A7FF6D90EE00120706015
:10086000FFF714FF044600BF2868800308D4FFF791
:100870000DFF001BB0F57A7FF6D9032002B070BDE2
:10088000002002B070BD00002DE9F041002800F00A
:100890008B8043F60808C4F202080446D8F8F8032F
:1008A0000D4600F00F00884207D288F8F853D8F8B8
:1008B000F80300F00F00A84276D12068810717D511
:1008C000410705D5D8F8001041F4E051C8F80010F0
:1008D000010705D5D8F8001041F46041C8F80010B0
:1008E000D8F80010A26821F0F0011143C8F80010F8
:1008F000C0073FD1D8F8F80300F00F00A84207D98D
:1009000088F8F853D8F8F80300F00F00A8424BD14C
:100910002068410707D5D8F80010E26821F4E051BB
:100920001143C8F80010000708D5D8F80000216965
:1009300020F4604040EAC100C8F8000000F07CF8F4
:10094000D8F8001041F62412C1F30311C0F60002DA
:10095000515C40F2080220FA01F140F20400C2F2B8
:1009600000000068C2F200021160FFF7BFFE002025
:10097000BDE8F0816068811E022907D258F8081C82
:1009800089015CBF0120BDE8F08111E0012807D199
:1009900058F8081C89035CBF0120BDE8F08107E01E
:1009A00058F8081C890703D40120BDE8F08100BF76
:1009B000D8F8001021F003010843C8F80000FFF741
:1009C00065FE064641F28837D8F80000616800F0FD
:1009D0000C00B0EB810F8DD0FFF758FE801BB842A2
:1009E000F2D90320BDE8F08140F2080043F6080187
:1009F000C2F20000C4F202010068096841F6341234
:100A0000C1F38221C0F60002515CC840704700006B
:100A100040F2080043F60801C2F20000C4F20201ED
:100A20000068096841F63412C1F34231C0F6000291
:100A3000515CC8407047000010B543F60404C4F28E
:100A40000204606800F00C0008280BD0042819BFCD
:100A500042F20040C0F2F40041F60030C0F2B700AC
:100A600010BD00BF206821682368490241F60031AB
:100A7000C0F2B70100F03F02C3F388105CBF42F23E
:100A80000041C0F2F401A1FB00010023FFF7FEFBCF
:100A900021680222C1F3014102EB4101B0FBF1F0F8
:100AA00010BD00002DE9F04182B0002868D0044656
:100AB000007843F60006C007C4F202060BD0B06807
:100AC00000F00C00042840F09F803068800302D5BD
:100AD0006068002854D0207880071AD5B06810F0DC
:100AE0000C0F09D0B06800F00C00082840F0A68078
:100AF0007068400200F1A2803068800702D5E0688B
:100B000001283DD13068216920F0F80040EAC10099
:100B100030602078000737D4207840074CD4A5698E
:100B200055B3B06800F00C00082840F0BB80012DE0
:100B300026D07068E16900F480028A4220D1216ADF
:100B400000F03F028A421BD147F6C071626A014041
:100B5000B1EB821F14D1A16A4FF6FF73C903994309
:100B600000F44032A1F580318A4209D1E16A00F0F7
:100B70007060B0EB016F03D1002002B0BDE8F081DE
:100B8000012002B0BDE8F0816069002840F2000059
:100B9000C4F2472076D00121C0F8801EFFF776FD11
:100BA000054600BF706F8007B6D4FFF76FFD401B8E
:100BB0000228F7D9DDE000BF306C10F080580AD170
:100BC00000200190306C40F080503064306C00F0B8
:100BD00080500190019847F20007C4F2000738687E
:100BE000C00541D4386840F480703860FFF74EFD8E
:100BF000054600BF3868C00536D4FFF747FD401BE7
:100C00000228F7D9B5E000BFB06800F00C00082852
:100C100003D1706840023FF558AF6068B0F5803F7F
:100C200007D0B0F5A02F40F08D80306840F48020D0
:100C30003060306840F4803030608DE0E06800283B
:100C400052D00020C4F2472001210160FFF71EFDB1
:100C5000054600BF306880073FF554AFFFF716FD2B
:100C6000401B0228F6D984E0A068012805D0052899
:100C70004ED1306F40F004003067306F40F001001B
:100C800030674FE00021C0F8801EFFF7FFFC0546EB
:100C9000706F80077FF540AFFFF7F8FC401B02281C
:100CA000F6D966E00027C4F2472700203866FFF730
:100CB000EDFC022D05460BD1306880015ED5FFF7B3
:100CC000E5FC401B02284FF00300F5D955E700BFB3
:100CD000306880017FF550AFFFF7D8FC401B022839
:100CE0004FF00300F4D948E70020C4F24720002168
:100CF0000160FFF7CBFC0546306880077FF509AF40
:100D0000FFF7C4FC401B02284FF00300F4D934E77E
:100D1000316F002821F001013167316F21F00401AA
:100D200031674DD0FFF7B2FC054641F2883700BF6E
:100D3000306F800756D4FFF7A9FC401BB842F7D9A3
:100D400017E000BF3168002821F48031316031683C
:100D500021F4802131604FD0FFF798FC054600BF99
:100D6000306880033FF5B7AEFFF790FC401B642866
:100D7000F6D9032002B0BDE8F08100BF04F11C05E4
:100D80002FCD084340EA8210D9034FF6FF729143FA
:100D9000A1F5803140EA05600843706001203866A3
:100DA000FFF774FC044600BF306880013FF5E4AEF5
:100DB000FFF76CFC001B02284FF00300F4D9DCE6BF
:100DC000FFF764FC054641F2883700BF306F8007AB
:100DD00008D5FFF75BFC401BB8424FF00300F5D984
:100DE000CBE600BFB8F1000F7FF499AE306C20F075
:100DF0008050306493E600BFFFF748FC054600BF13
:100E0000306880037FF567AEFFF740FC401B642825
:100E10004FF00300F4D9B0E6411E0020B0EB116F93
:100E20001CBF012070474EF21002CEF2000251604A
:100E30004EF62351CEF20001F0230B700721906093
:100E4000116070477047000070470000B0B582B075
:100E5000044600680168C368426901F02F05202D2F
:100E600003F0200506D12DB1204602B0BDE8B04008
:100E700000F032BC5FEA017C1EBF02F0010E03F4F9
:100E8000907212EB0E0253D1226B012A05D111F0A0
:100E9000100218BF13F0100236D10A0622D513F043
:100EA00080021FD094F8411021293FD1A168B1F5EB
:100EB000805F03D12169002900F07282216A4A1CF7
:100EC000226209784160E18C01390A04E1842DD164
:100ED000C16821F08001C160C16841F04001C1607A
:100EE00002B0B0BD490621D513F040011ED0C16843
:100EF00021F04001C1602021204684F8411002B059
:100F0000BDE8B04000F02ABB0021019101680191C9
:100F10004168019101994069400613D4A08DE18D8B
:100F2000E28D002A18BF884240F0BC8102B0B0BDFB
:100F3000CA0718BF13F4807240F0B8804A0700F166
:100F4000BB80C0E0E06B016849688AB2002AEDD03E
:100F5000A38D9A42EAD2E185C069B0F5807F00F0A6
:100F60009C80206850E8030F216820F4807041E8DD
:100F70000302DAB1206850E8030F216820F4807082
:100F800041E8030292B1206850E8030F216820F481
:100F9000807041E803024AB1206850E8030F2168DD
:100FA00020F4807041E80302002ADAD1206850E87A
:100FB000050F216820F0010041E80502DAB1206840
:100FC00050E8050F216820F0010041E8050292B1C8
:100FD000206850E8050F216820F0010041E8050273
:100FE0004AB1206850E8050F216820F0010041E86F
:100FF0000502002ADAD1206850E8050F216820F0A8
:10100000400041E80502DAB1206850E8050F216888
:1010100020F0400041E8050292B1206850E8050F39
:10102000216820F0400041E805024AB1206850E8FC
:10103000050F216820F0400041E80502002ADAD1BE
:10104000202084F8420000202063206850E8030F2D
:10105000216820F0100041E80302DAB1206850E86E
:10106000030F216820F0100041E8030292B12068CC
:1010700050E8030F216820F0100041E803024AB154
:10108000206850E8030F216820F0100041E80302B7
:10109000002ADAD1E06BFFF7B7F902206063A08D78
:1010A000E18D401A81B2204675E100BF626C42F0CA
:1010B000010262644A0706D5BEF1000F03D0626CDC
:1010C00042F0020262648A0706D5BEF1000F03D027
:1010D000626C42F004026264BCF1000F09D545EA7B
:1010E0000E02B2FA82F2520903D1626C42F0080297
:1010F0006264626C002A3FF419AF11F0200118BF3E
:10110000002D03D0204600F0E7FA20684069616CAA
:1011100000F0400001F00801401800F0B58000BF69
:10112000206850E8030F216820F4907041E8030222
:10113000BAB3206850E8030F216820F4907041E8AA
:10114000030272B3206850E8030F216820F4907006
:1011500041E803022AB3206850E8030F216820F415
:10116000907041E80302002ADAD11AE0206850E8C2
:10117000050F216820F0010041E80502DAB120687E
:1011800050E8050F216820F0010041E8050292B106
:10119000206850E8050F216820F0010041E80502B1
:1011A0004AB1206850E8050F216820F0010041E8AD
:1011B0000502002ADAD1206B012824D1206850E8EA
:1011C000030F216820F0100041E80302DAB1206823
:1011D00050E8030F216820F0100041E8030292B1AB
:1011E000206850E8030F216820F0100041E8030256
:1011F0004AB1206850E8030F216820F0100041E850
:101200000302002ADAD1202084F842000020206363
:101210002068406940063FD5206850E8050F2168E6
:1012200020F0400041E80502DAB1206850E8050FDF
:10123000216820F0400041E8050292B1206850E8A2
:10124000050F216820F0400041E805024AB12068FE
:1012500050E8050F216820F0400041E80502002A0F
:10126000DAD1E06BC0B141F2CD61C0F60001016599
:10127000FFF712F900283FF459AEE06B016D02B0A0
:10128000BDE8B040084700BF2046FFF7DDFD002065
:10129000606402B0B0BD00BF204602B0BDE8B040FF
:1012A000FFF7D2BD401A216851E8031F226821F4DC
:1012B000907142E80313DBB1216851E8031F2268F3
:1012C00021F4907142E8031393B1216851E8031FA0
:1012D000226821F4907142E803134BB1216851E870
:1012E000031F226821F4907142E80313002BDAD126
:1012F000216851E8051F226821F0010142E8051329
:10130000DBB1216851E8051F226821F0010142E8A4
:10131000051393B1216851E8051F226821F00101EE
:1013200042E805134BB1216851E8051F226821F0FE
:10133000010142E80513002BDAD1202184F8421084
:1013400000212163216851E8031F226821F0100168
:1013500042E80313DBB1216851E8031F226821F042
:10136000100142E8031393B1216851E8031F22687A
:1013700021F0100142E803134BB1216851E8031F2B
:10138000226821F0100142E80313002BDAD1022277
:1013900081B22046626302B0BDE8B040FFF752BDA3
:1013A000216A31F8022B6FF35F22426021628AE5E5
:1013B000002804BF0120704710B5044690F8410092
:1013C00028B9002084F84000204600F021F82420AD
:1013D00084F841002068C16821F40051C1602046B2
:1013E00000F0FAF92068016921F490410161416936
:1013F00021F02A014161C16841F40051C16000201F
:101400002021606484F8411084F84210606310BDAC
:1014100080B586B0016841F20040C4F2010081420B
:1014200002D006B080BD00BF002143F6300201911A
:10143000C4F20202536900F5823043F02003536185
:10144000536903F020030193019B0191136843F05A
:1014500040031360126802F040020192019A4FF4B7
:10146000844201920222CDE9022103210491082144
:10147000059101A9FFF736F8472000210022FFF768
:1014800089F94720FFF772F906B080BD90F8423025
:10149000202B1CBF0220704700294FF0010318BF0A
:1014A000002A01D11846704700230363816222217C
:1014B0008285C285436480F842100169006819B1D1
:1014C000C16841F48071C1604169002341F00101AC
:1014D0004161C16841F02001C160184670470000B9
:1014E00080B540F27001C2F20001006809688842CC
:1014F0000AD140F2700040F2B801C2F20000C2F21C
:1015000000010822FFF7C2FF40F2700040F2B8016C
:10151000C2F20000C2F200010822BDE8804000F0E3
:1015200001B80000034690F8410020281CBF0220AB
:10153000704700294FF0010018BF002A00D1704702
:101540001962002021219A84DA84586483F84110BA
:101550001968CA6842F08002CA607047704700008C
:10156000FEE7000083B0002043F630010290C4F291
:1015700002010A6842F040020A600A6802F0400272
:101580000292029A01900A6842F001020A600A6817
:1015900002F001020192019A0090086840F0800078
:1015A0000860086800F080000090009803B0704761
:1015B00080B540F2700041F20041C2F20000C4F276
:1015C000010100234FF00C0C4FF4E13280E80E00D3
:1015D000C0E90333C0E905C3C361FFF7E9FE002892
:1015E00008BF80BDBDE88040FEF70ABFFEE70000EF
:1015F000FEE700007047000070470000FFF74CB89E
:1016000080B592B0002043F64001CDE90A00CDE953
:1016100008000590CDE90300CDE901000090C4F277
:1016200002010A6842F080520A60096801F08051A4
:1016300000910099009047F20000C4F20000016898
:1016400041F44041016000684FF4800100F44040E3
:1016500000900098012006904FF480300D910621F3
:10166000079002200E91B4210C90CDE90F100420B8
:10167000119006A8FFF716FA10B172B6FEE700BF88
:10168000FFF7C4F810B172B6FEE700BF0F2001905B
:1016900002200290002003904FF4A05004904FF4D9
:1016A0008050059001A80521FFF7EEF810B172B641
:1016B000FEE700BF12B080BD4EF68850CEF20000AB
:1016C000016841F47001016070470000806B0021E7
:1016D000C185C184FFF7B8BB81B090F842102229C0
:1016E00021D183680246B3F5805F09D152F8281FE3
:1016F00052F8183C002B63D003685B680AE000BF17
:1017000052F8281F13B90369002BF5D003685B68F2
:1017100003F07F030B70116801311160C18D013935
:101720000A04C18502D001B0704700BF0168CA68D1
:1017300022F02002CA60CA6822F48072CA604A6934
:1017400022F001024A61202180F842100021416309
:10175000026B012A3CD10163016851E8031F026852
:1017600021F0100142E80313DBB1016851E8031FC7
:10177000026821F0100142E8031393B1016851E8B7
:10178000031F026821F0100142E803134BB1016806
:1017900051E8031F026821F0100142E80313002BF7
:1017A000DAD101680A68D20606D5002200920A68DA
:1017B0000092496800910099818D01B0FFF742BB0A
:1017C000026852686FF35F2221F8022B8162A5E75D
:1017D00001B0FFF785BE000010B504460068D4E9EB
:1017E00002C22369016921F4405111430161626918
:1017F00043EA0C01E3691143C268194349F20C63DF
:101800009A431143C1604169A26921F4407141F2D8
:101810000043114340F48062C4F201039A424161E3
:1018200002D1FFF7F5F801E0FFF7DEF8E169636840
:101830001922B1F5004FA0FB020123D15A00DB0FA2
:10184000FEF724FD48F21F51C5F2EB11A0FB012366
:101850005A094FF69C73C0F6FF7303F1805302FBE5
:101860000300322303EBC000A0FB01014FF4F8702A
:1018700000EA111000EB0210C1F342110844216884
:10188000886010BD9A009B0FFEF700FD48F21F51C3
:10189000C5F2EB11A0FB01235A094FF69C73C0F669
:1018A000FF7302FB0300322303EB0010A0FB0101D6
:1018B000F02000EA511000EB0210C1F3431108447C
:1018C0002168886010BD000040F27000C2F2000084
:1018D000FFF7BCBAFEE70000FEF7ECFEFFF790FE54
:1018E000FFF740FEFFF764FE40F2700040F2B801DF
:1018F000C2F20000C2F200010122FFF7C7FD00BFE3
:101900004FF47A70FEF7DAFDFAE7F1EE100A4FF6BF
:10191000FF71C0F2C03120EA010040F04070E1EEFA
:10192000100A7047000000000000000001020304DC
:1019300006070809000000000102030460190008FE
:101940000000002010000000E801000870190008E5
:1019500010000020B806000004020008000000008B
:1019600001000000100000000024F400000000004E
:04000005080001AD41
:00000001FF
